{
  "address": "0xa7367B4Bc4C719ca57534360ec4f3D7Be213758b",
  "abi": [
    {
      "inputs": [
        {
          "internalType": "address",
          "name": "_authSigner",
          "type": "address"
        }
      ],
      "stateMutability": "nonpayable",
      "type": "constructor"
    },
    {
      "anonymous": false,
      "inputs": [
        {
          "indexed": true,
          "internalType": "address",
          "name": "owner",
          "type": "address"
        },
        {
          "indexed": true,
          "internalType": "address",
          "name": "spender",
          "type": "address"
        },
        {
          "indexed": false,
          "internalType": "uint256",
          "name": "value",
          "type": "uint256"
        }
      ],
      "name": "Approval",
      "type": "event"
    },
    {
      "anonymous": false,
      "inputs": [
        {
          "indexed": false,
          "internalType": "address",
          "name": "burner",
          "type": "address"
        },
        {
          "indexed": false,
          "internalType": "uint256",
          "name": "amount",
          "type": "uint256"
        },
        {
          "indexed": false,
          "internalType": "uint256",
          "name": "currentPeriod",
          "type": "uint256"
        }
      ],
      "name": "Burn",
      "type": "event"
    },
    {
      "anonymous": false,
      "inputs": [
        {
          "indexed": false,
          "internalType": "address",
          "name": "from",
          "type": "address"
        },
        {
          "indexed": false,
          "internalType": "uint256",
          "name": "amount",
          "type": "uint256"
        },
        {
          "indexed": false,
          "internalType": "uint256",
          "name": "currentPeriod",
          "type": "uint256"
        }
      ],
      "name": "BurnFrom",
      "type": "event"
    },
    {
      "anonymous": false,
      "inputs": [
        {
          "indexed": false,
          "internalType": "address",
          "name": "to",
          "type": "address"
        },
        {
          "indexed": false,
          "internalType": "uint256",
          "name": "amount",
          "type": "uint256"
        },
        {
          "indexed": false,
          "internalType": "uint256",
          "name": "nonce",
          "type": "uint256"
        },
        {
          "indexed": false,
          "internalType": "uint256",
          "name": "currentPeriod",
          "type": "uint256"
        }
      ],
      "name": "Mint",
      "type": "event"
    },
    {
      "anonymous": false,
      "inputs": [
        {
          "indexed": true,
          "internalType": "address",
          "name": "previousOwner",
          "type": "address"
        },
        {
          "indexed": true,
          "internalType": "address",
          "name": "newOwner",
          "type": "address"
        }
      ],
      "name": "OwnershipTransferred",
      "type": "event"
    },
    {
      "anonymous": false,
      "inputs": [
        {
          "indexed": false,
          "internalType": "address",
          "name": "account",
          "type": "address"
        }
      ],
      "name": "Paused",
      "type": "event"
    },
    {
      "anonymous": false,
      "inputs": [
        {
          "indexed": true,
          "internalType": "address",
          "name": "from",
          "type": "address"
        },
        {
          "indexed": true,
          "internalType": "address",
          "name": "to",
          "type": "address"
        },
        {
          "indexed": false,
          "internalType": "uint256",
          "name": "value",
          "type": "uint256"
        }
      ],
      "name": "Transfer",
      "type": "event"
    },
    {
      "anonymous": false,
      "inputs": [
        {
          "indexed": false,
          "internalType": "address",
          "name": "account",
          "type": "address"
        }
      ],
      "name": "Unpaused",
      "type": "event"
    },
    {
      "inputs": [],
      "name": "HALVING_PERIOD",
      "outputs": [
        {
          "internalType": "uint256",
          "name": "",
          "type": "uint256"
        }
      ],
      "stateMutability": "view",
      "type": "function"
    },
    {
      "inputs": [],
      "name": "INITIAL_MINTABLE_PER_PERIOD",
      "outputs": [
        {
          "internalType": "uint256",
          "name": "",
          "type": "uint256"
        }
      ],
      "stateMutability": "view",
      "type": "function"
    },
    {
      "inputs": [],
      "name": "RESERVE",
      "outputs": [
        {
          "internalType": "uint256",
          "name": "",
          "type": "uint256"
        }
      ],
      "stateMutability": "view",
      "type": "function"
    },
    {
      "inputs": [
        {
          "internalType": "address",
          "name": "owner",
          "type": "address"
        },
        {
          "internalType": "address",
          "name": "spender",
          "type": "address"
        }
      ],
      "name": "allowance",
      "outputs": [
        {
          "internalType": "uint256",
          "name": "",
          "type": "uint256"
        }
      ],
      "stateMutability": "view",
      "type": "function"
    },
    {
      "inputs": [
        {
          "internalType": "address",
          "name": "spender",
          "type": "address"
        },
        {
          "internalType": "uint256",
          "name": "amount",
          "type": "uint256"
        }
      ],
      "name": "approve",
      "outputs": [
        {
          "internalType": "bool",
          "name": "",
          "type": "bool"
        }
      ],
      "stateMutability": "nonpayable",
      "type": "function"
    },
    {
      "inputs": [],
      "name": "authSigner",
      "outputs": [
        {
          "internalType": "address",
          "name": "",
          "type": "address"
        }
      ],
      "stateMutability": "view",
      "type": "function"
    },
    {
      "inputs": [
        {
          "internalType": "address",
          "name": "account",
          "type": "address"
        }
      ],
      "name": "balanceOf",
      "outputs": [
        {
          "internalType": "uint256",
          "name": "",
          "type": "uint256"
        }
      ],
      "stateMutability": "view",
      "type": "function"
    },
    {
      "inputs": [
        {
          "internalType": "uint256",
          "name": "amount",
          "type": "uint256"
        }
      ],
      "name": "burn",
      "outputs": [],
      "stateMutability": "nonpayable",
      "type": "function"
    },
    {
      "inputs": [
        {
          "internalType": "address",
          "name": "account",
          "type": "address"
        },
        {
          "internalType": "uint256",
          "name": "amount",
          "type": "uint256"
        }
      ],
      "name": "burnFrom",
      "outputs": [],
      "stateMutability": "nonpayable",
      "type": "function"
    },
    {
      "inputs": [],
      "name": "currentMintCap",
      "outputs": [
        {
          "internalType": "uint256",
          "name": "",
          "type": "uint256"
        }
      ],
      "stateMutability": "view",
      "type": "function"
    },
    {
      "inputs": [],
      "name": "currentPeriod",
      "outputs": [
        {
          "internalType": "uint256",
          "name": "",
          "type": "uint256"
        }
      ],
      "stateMutability": "view",
      "type": "function"
    },
    {
      "inputs": [],
      "name": "decimals",
      "outputs": [
        {
          "internalType": "uint8",
          "name": "",
          "type": "uint8"
        }
      ],
      "stateMutability": "view",
      "type": "function"
    },
    {
      "inputs": [
        {
          "internalType": "address",
          "name": "spender",
          "type": "address"
        },
        {
          "internalType": "uint256",
          "name": "subtractedValue",
          "type": "uint256"
        }
      ],
      "name": "decreaseAllowance",
      "outputs": [
        {
          "internalType": "bool",
          "name": "",
          "type": "bool"
        }
      ],
      "stateMutability": "nonpayable",
      "type": "function"
    },
    {
      "inputs": [],
      "name": "deployTime",
      "outputs": [
        {
          "internalType": "uint256",
          "name": "",
          "type": "uint256"
        }
      ],
      "stateMutability": "view",
      "type": "function"
    },
    {
      "inputs": [
        {
          "internalType": "address",
          "name": "spender",
          "type": "address"
        },
        {
          "internalType": "uint256",
          "name": "addedValue",
          "type": "uint256"
        }
      ],
      "name": "increaseAllowance",
      "outputs": [
        {
          "internalType": "bool",
          "name": "",
          "type": "bool"
        }
      ],
      "stateMutability": "nonpayable",
      "type": "function"
    },
    {
      "inputs": [
        {
          "internalType": "address",
          "name": "_to",
          "type": "address"
        },
        {
          "internalType": "uint256",
          "name": "_amount",
          "type": "uint256"
        },
        {
          "internalType": "uint256",
          "name": "_nonce",
          "type": "uint256"
        },
        {
          "internalType": "bytes",
          "name": "sig",
          "type": "bytes"
        }
      ],
      "name": "mint",
      "outputs": [],
      "stateMutability": "nonpayable",
      "type": "function"
    },
    {
      "inputs": [],
      "name": "name",
      "outputs": [
        {
          "internalType": "string",
          "name": "",
          "type": "string"
        }
      ],
      "stateMutability": "view",
      "type": "function"
    },
    {
      "inputs": [],
      "name": "owner",
      "outputs": [
        {
          "internalType": "address",
          "name": "",
          "type": "address"
        }
      ],
      "stateMutability": "view",
      "type": "function"
    },
    {
      "inputs": [],
      "name": "pause",
      "outputs": [],
      "stateMutability": "nonpayable",
      "type": "function"
    },
    {
      "inputs": [],
      "name": "paused",
      "outputs": [
        {
          "internalType": "bool",
          "name": "",
          "type": "bool"
        }
      ],
      "stateMutability": "view",
      "type": "function"
    },
    {
      "inputs": [
        {
          "internalType": "address",
          "name": "tokenAddress",
          "type": "address"
        }
      ],
      "name": "recoverERC20",
      "outputs": [],
      "stateMutability": "nonpayable",
      "type": "function"
    },
    {
      "inputs": [],
      "name": "renounceOwnership",
      "outputs": [],
      "stateMutability": "nonpayable",
      "type": "function"
    },
    {
      "inputs": [
        {
          "internalType": "address",
          "name": "_authSigner",
          "type": "address"
        }
      ],
      "name": "setAuthSigner",
      "outputs": [],
      "stateMutability": "nonpayable",
      "type": "function"
    },
    {
      "inputs": [],
      "name": "symbol",
      "outputs": [
        {
          "internalType": "string",
          "name": "",
          "type": "string"
        }
      ],
      "stateMutability": "view",
      "type": "function"
    },
    {
      "inputs": [],
      "name": "totalSupply",
      "outputs": [
        {
          "internalType": "uint256",
          "name": "",
          "type": "uint256"
        }
      ],
      "stateMutability": "view",
      "type": "function"
    },
    {
      "inputs": [
        {
          "internalType": "address",
          "name": "to",
          "type": "address"
        },
        {
          "internalType": "uint256",
          "name": "amount",
          "type": "uint256"
        }
      ],
      "name": "transfer",
      "outputs": [
        {
          "internalType": "bool",
          "name": "",
          "type": "bool"
        }
      ],
      "stateMutability": "nonpayable",
      "type": "function"
    },
    {
      "inputs": [
        {
          "internalType": "address",
          "name": "from",
          "type": "address"
        },
        {
          "internalType": "address",
          "name": "to",
          "type": "address"
        },
        {
          "internalType": "uint256",
          "name": "amount",
          "type": "uint256"
        }
      ],
      "name": "transferFrom",
      "outputs": [
        {
          "internalType": "bool",
          "name": "",
          "type": "bool"
        }
      ],
      "stateMutability": "nonpayable",
      "type": "function"
    },
    {
      "inputs": [
        {
          "internalType": "address",
          "name": "newOwner",
          "type": "address"
        }
      ],
      "name": "transferOwnership",
      "outputs": [],
      "stateMutability": "nonpayable",
      "type": "function"
    },
    {
      "inputs": [],
      "name": "unpause",
      "outputs": [],
      "stateMutability": "nonpayable",
      "type": "function"
    }
  ],
  "transactionHash": "0x31d048a5506b65cfd07e5d1d94a96bd7f65daa01aaa1c3ca348c19d17dc21f97",
  "args": [
    "0x7d14F396d347C960bC2774141D51DA59Be408F71"
  ],
  "numDeployments": 1,
  "solcInputHash": "0b9679476ca7dc359e994c3ed530ba76",
  "bytecode": "0x60a06040523480156200001157600080fd5b50604051620020123803806200201283398101604081905262000034916200040c565b60408051808201825260068082526514d21251531160d21b6020808401829052845180860190955291845290830152906003620000728382620004e2565b506004620000818282620004e2565b50506005805460ff191690555062000099336200014d565b6001600160a01b038116620000e45760405162461bcd60e51b815260206004820152600c60248201526b24b73b30b634b21030b2323960a11b60448201526064015b60405180910390fd5b600680546001600160a01b0319166001600160a01b038316179055426080526200011a336a01a784379d99db42000000620001a7565b50600080805260076020527f6d5257204ebe7d88fd91ae87941cb2dd9d8062b64ae5a2bd2d28ec40b9fbf6df5562000724565b600580546001600160a01b03838116610100818102610100600160a81b031985161790945560405193909204169182907f8be0079c531659141344cd1fd0a4f28419497f9722a3daafe3b4186f6b6457e090600090a35050565b620001b162000250565b8160076000620001c062000286565b815260200190815260200160002054620001db9190620005c4565b11156200022b5760405162461bcd60e51b815260206004820152601760248201527f4578636565642063757272656e74206d696e74206361700000000000000000006044820152606401620000db565b62000235620002a8565b6200024c8282620002f260201b62000a531760201c565b5050565b60006200025c62000286565b62000269906002620006dd565b62000281906b06765c793fa10079d0000000620006eb565b905090565b600062ed4e00608051426200029c91906200070e565b620002819190620006eb565b60055460ff1615620002f05760405162461bcd60e51b815260206004820152601060248201526f14185d5cd8589b194e881c185d5cd95960821b6044820152606401620000db565b565b6001600160a01b0382166200034a5760405162461bcd60e51b815260206004820152601f60248201527f45524332303a206d696e7420746f20746865207a65726f2061646472657373006044820152606401620000db565b6200035860008383620003e5565b80600260008282546200036c9190620005c4565b90915550506001600160a01b038216600090815260208190526040812080548392906200039b908490620005c4565b90915550506040518181526001600160a01b038316906000907fddf252ad1be2c89b69c2b068fc378daa952ba7f163c4a11628f55a4df523b3ef9060200160405180910390a35050565b620003fd8383836200040760201b620008f61760201c565b62000407620002a8565b505050565b6000602082840312156200041f57600080fd5b81516001600160a01b03811681146200043757600080fd5b9392505050565b634e487b7160e01b600052604160045260246000fd5b600181811c908216806200046957607f821691505b6020821081036200048a57634e487b7160e01b600052602260045260246000fd5b50919050565b601f8211156200040757600081815260208120601f850160051c81016020861015620004b95750805b601f850160051c820191505b81811015620004da57828155600101620004c5565b505050505050565b81516001600160401b03811115620004fe57620004fe6200043e565b62000516816200050f845462000454565b8462000490565b602080601f8311600181146200054e5760008415620005355750858301515b600019600386901b1c1916600185901b178555620004da565b600085815260208120601f198616915b828110156200057f578886015182559484019460019091019084016200055e565b50858210156200059e5787850151600019600388901b60f8161c191681555b5050505050600190811b01905550565b634e487b7160e01b600052601160045260246000fd5b80820180821115620005da57620005da620005ae565b92915050565b600181815b8085111562000621578160001904821115620006055762000605620005ae565b808516156200061357918102915b93841c9390800290620005e5565b509250929050565b6000826200063a57506001620005da565b816200064957506000620005da565b81600181146200066257600281146200066d576200068d565b6001915050620005da565b60ff841115620006815762000681620005ae565b50506001821b620005da565b5060208310610133831016604e8410600b8410161715620006b2575081810a620005da565b620006be8383620005e0565b8060001904821115620006d557620006d5620005ae565b029392505050565b600062000437838362000629565b6000826200070957634e487b7160e01b600052601260045260246000fd5b500490565b81810381811115620005da57620005da620005ae565b6080516118cb6200074760003960008181610318015261047f01526118cb6000f3fe608060405234801561001057600080fd5b50600436106101cf5760003560e01c8063715018a6116101045780639d2cc436116100a2578063b42348ac11610071578063b42348ac146103bf578063d7556458146103d2578063dd62ed3e146103da578063f2fde38b146103ed57600080fd5b80639d2cc436146103745780639e8c708e14610386578063a457c2d714610399578063a9059cbb146103ac57600080fd5b80637a40624b116100de5780637a40624b146103135780638456cb591461033a5780638da5cb5b1461034257806395d89b411461036c57600080fd5b8063715018a6146102e5578063731133e9146102ed57806379cc67901461030057600080fd5b8063395093511161017157806342966c681161014b57806342966c681461028b57806354bd59501461029e5780635c975abb146102b157806370a08231146102bc57600080fd5b806339509351146102665780633adde9c1146102795780633f4ba83a1461028357600080fd5b8063095ea7b3116101ad578063095ea7b31461021957806318160ddd1461023c57806323b872dd14610244578063313ce5671461025757600080fd5b80630532bca1146101d457806306040618146101e957806306fdde0314610204575b600080fd5b6101e76101e236600461144b565b610400565b005b6101f1610474565b6040519081526020015b60405180910390f35b61020c6104b3565b6040516101fb9190611491565b61022c6102273660046114c4565b610545565b60405190151581526020016101fb565b6002546101f1565b61022c6102523660046114ee565b61055f565b604051601281526020016101fb565b61022c6102743660046114c4565b610583565b6101f162ed4e0081565b6101e76105a5565b6101e761029936600461152a565b6105b7565b6101f16b06765c793fa10079d000000081565b60055460ff1661022c565b6101f16102ca36600461144b565b6001600160a01b031660009081526020819052604090205490565b6101e761061e565b6101e76102fb366004611559565b610630565b6101e761030e3660046114c4565b610767565b6101f17f000000000000000000000000000000000000000000000000000000000000000081565b6101e76107d0565b60055461010090046001600160a01b03165b6040516001600160a01b0390911681526020016101fb565b61020c6107e0565b6101f16a01a784379d99db4200000081565b6101e761039436600461144b565b6107ef565b61022c6103a73660046114c4565b6108fb565b61022c6103ba3660046114c4565b610976565b600654610354906001600160a01b031681565b6101f1610984565b6101f16103e836600461162e565b6109af565b6101e76103fb36600461144b565b6109da565b610408610b3f565b6001600160a01b0381166104525760405162461bcd60e51b815260206004820152600c60248201526b24b73b30b634b21030b2323960a11b60448201526064015b60405180910390fd5b600680546001600160a01b0319166001600160a01b0392909216919091179055565b600062ed4e006104a47f000000000000000000000000000000000000000000000000000000000000000042611677565b6104ae919061168a565b905090565b6060600380546104c2906116ac565b80601f01602080910402602001604051908101604052809291908181526020018280546104ee906116ac565b801561053b5780601f106105105761010080835404028352916020019161053b565b820191906000526020600020905b81548152906001019060200180831161051e57829003601f168201915b5050505050905090565b600033610553818585610b9f565b60019150505b92915050565b60003361056d858285610cc3565b610578858585610d3d565b506001949350505050565b60003361055381858561059683836109af565b6105a091906116e6565b610b9f565b6105ad610b3f565b6105b5610f16565b565b6105bf610f68565b6105c881610fae565b7f49995e5dd6158cf69ad3e9777c46755a1a826a446c6416992167462dad033b2a33826105f3610474565b604080516001600160a01b03909416845260208401929092529082015260600160405180910390a150565b610626610b3f565b6105b56000610fb8565b60008281526008602052604090205460ff16156106805760405162461bcd60e51b815260206004820152600e60248201526d139bdb98d94818dbdb9cdd5b595960921b6044820152606401610449565b6106a56040518060600160405280602381526020016118736023913933858585611012565b6106e55760405162461bcd60e51b8152602060048201526011602482015270496e76616c6964207369676e617475726560781b6044820152606401610449565b6000828152600860205260409020805460ff1916600117905561070884846110bf565b7fb4c03061fb5b7fed76389d5af8f2e0ddb09f8c70d1333abbb62582835e10accb848484610734610474565b604080516001600160a01b039095168552602085019390935291830152606082015260800160405180910390a150505050565b61076f610f68565b610779828261114d565b7fa3e0adb4960cea65a9770d6f76fd931fed41cc575d4376e126bd426d3645e54b82826107a4610474565b604080516001600160a01b03909416845260208401929092529082015260600160405180910390a15050565b6107d8610b3f565b6105b5611162565b6060600480546104c2906116ac565b6107f7610b3f565b806001600160a01b03811663a9059cbb61081f6005546001600160a01b036101009091041690565b6040516370a0823160e01b81523060048201526001600160a01b038516906370a0823190602401602060405180830381865afa158015610863573d6000803e3d6000fd5b505050506040513d601f19601f8201168201806040525081019061088791906116f9565b6040516001600160e01b031960e085901b1681526001600160a01b03909216600483015260248201526044016020604051808303816000875af11580156108d2573d6000803e3d6000fd5b505050506040513d601f19601f820116820180604052508101906108f69190611712565b505050565b6000338161090982866109af565b9050838110156109695760405162461bcd60e51b815260206004820152602560248201527f45524332303a2064656372656173656420616c6c6f77616e63652062656c6f77604482015264207a65726f60d81b6064820152608401610449565b6105788286868403610b9f565b600033610553818585610d3d565b600061098e610474565b610999906002611818565b6104ae906b06765c793fa10079d000000061168a565b6001600160a01b03918216600090815260016020908152604080832093909416825291909152205490565b6109e2610b3f565b6001600160a01b038116610a475760405162461bcd60e51b815260206004820152602660248201527f4f776e61626c653a206e6577206f776e657220697320746865207a65726f206160448201526564647265737360d01b6064820152608401610449565b610a5081610fb8565b50565b6001600160a01b038216610aa95760405162461bcd60e51b815260206004820152601f60248201527f45524332303a206d696e7420746f20746865207a65726f2061646472657373006044820152606401610449565b610ab56000838361119f565b8060026000828254610ac791906116e6565b90915550506001600160a01b03821660009081526020819052604081208054839290610af49084906116e6565b90915550506040518181526001600160a01b038316906000907fddf252ad1be2c89b69c2b068fc378daa952ba7f163c4a11628f55a4df523b3ef9060200160405180910390a35b5050565b6005546001600160a01b036101009091041633146105b55760405162461bcd60e51b815260206004820181905260248201527f4f776e61626c653a2063616c6c6572206973206e6f7420746865206f776e65726044820152606401610449565b6001600160a01b038316610c015760405162461bcd60e51b8152602060048201526024808201527f45524332303a20617070726f76652066726f6d20746865207a65726f206164646044820152637265737360e01b6064820152608401610449565b6001600160a01b038216610c625760405162461bcd60e51b815260206004820152602260248201527f45524332303a20617070726f766520746f20746865207a65726f206164647265604482015261737360f01b6064820152608401610449565b6001600160a01b0383811660008181526001602090815260408083209487168084529482529182902085905590518481527f8c5be1e5ebec7d5bd14f71427d1e84f3dd0314c0f7b2291e5b200ac8c7c3b925910160405180910390a3505050565b6000610ccf84846109af565b90506000198114610d375781811015610d2a5760405162461bcd60e51b815260206004820152601d60248201527f45524332303a20696e73756666696369656e7420616c6c6f77616e63650000006044820152606401610449565b610d378484848403610b9f565b50505050565b6001600160a01b038316610da15760405162461bcd60e51b815260206004820152602560248201527f45524332303a207472616e736665722066726f6d20746865207a65726f206164604482015264647265737360d81b6064820152608401610449565b6001600160a01b038216610e035760405162461bcd60e51b815260206004820152602360248201527f45524332303a207472616e7366657220746f20746865207a65726f206164647260448201526265737360e81b6064820152608401610449565b610e0e83838361119f565b6001600160a01b03831660009081526020819052604090205481811015610e865760405162461bcd60e51b815260206004820152602660248201527f45524332303a207472616e7366657220616d6f756e7420657863656564732062604482015265616c616e636560d01b6064820152608401610449565b6001600160a01b03808516600090815260208190526040808220858503905591851681529081208054849290610ebd9084906116e6565b92505081905550826001600160a01b0316846001600160a01b03167fddf252ad1be2c89b69c2b068fc378daa952ba7f163c4a11628f55a4df523b3ef84604051610f0991815260200190565b60405180910390a3610d37565b610f1e6111a7565b6005805460ff191690557f5db9ee0a495bf2e6ff9c91a7834c1ba4fdd244a5e8aa4e537bd38aeae4b073aa335b6040516001600160a01b03909116815260200160405180910390a1565b60055460ff16156105b55760405162461bcd60e51b815260206004820152601060248201526f14185d5cd8589b194e881c185d5cd95960821b6044820152606401610449565b610a5033826111f0565b600580546001600160a01b03838116610100818102610100600160a81b031985161790945560405193909204169182907f8be0079c531659141344cd1fd0a4f28419497f9722a3daafe3b4186f6b6457e090600090a35050565b6000806110918730888888604051602001611031959493929190611824565b60408051601f1981840301815282825280516020918201207f19457468657265756d205369676e6564204d6573736167653a0a33320000000084830152603c8085019190915282518085039091018152605c909301909152815191012090565b6006549091506001600160a01b03166110aa828561134a565b6001600160a01b031614979650505050505050565b6110c7610984565b81600760006110d4610474565b8152602001908152602001600020546110ed91906116e6565b111561113b5760405162461bcd60e51b815260206004820152601760248201527f4578636565642063757272656e74206d696e74206361700000000000000000006044820152606401610449565b611143610f68565b610b3b8282610a53565b611158823383610cc3565b610b3b82826111f0565b61116a610f68565b6005805460ff191660011790557f62e78cea01bee320cd4e420270b5ea74000d11b0c9f74754ebdbfc544b05a258610f4b3390565b6108f6610f68565b60055460ff166105b55760405162461bcd60e51b815260206004820152601460248201527314185d5cd8589b194e881b9bdd081c185d5cd95960621b6044820152606401610449565b6001600160a01b0382166112505760405162461bcd60e51b815260206004820152602160248201527f45524332303a206275726e2066726f6d20746865207a65726f206164647265736044820152607360f81b6064820152608401610449565b61125c8260008361119f565b6001600160a01b038216600090815260208190526040902054818110156112d05760405162461bcd60e51b815260206004820152602260248201527f45524332303a206275726e20616d6f756e7420657863656564732062616c616e604482015261636560f01b6064820152608401610449565b6001600160a01b03831660009081526020819052604081208383039055600280548492906112ff908490611677565b90915550506040518281526000906001600160a01b038516907fddf252ad1be2c89b69c2b068fc378daa952ba7f163c4a11628f55a4df523b3ef9060200160405180910390a3505050565b600080600080611359856113c9565b6040805160008152602081018083528b905260ff8516918101919091526060810183905260808101829052929550909350915060019060a0016020604051602081039080840390855afa1580156113b4573d6000803e3d6000fd5b5050604051601f190151979650505050505050565b600080600083516041146114135760405162461bcd60e51b8152602060048201526011602482015270496e76616c6964207369676e617475726560781b6044820152606401610449565b5050506020810151604082015160609092015160001a92909190565b80356001600160a01b038116811461144657600080fd5b919050565b60006020828403121561145d57600080fd5b6114668261142f565b9392505050565b60005b83811015611488578181015183820152602001611470565b50506000910152565b60208152600082518060208401526114b081604085016020870161146d565b601f01601f19169190910160400192915050565b600080604083850312156114d757600080fd5b6114e08361142f565b946020939093013593505050565b60008060006060848603121561150357600080fd5b61150c8461142f565b925061151a6020850161142f565b9150604084013590509250925092565b60006020828403121561153c57600080fd5b5035919050565b634e487b7160e01b600052604160045260246000fd5b6000806000806080858703121561156f57600080fd5b6115788561142f565b93506020850135925060408501359150606085013567ffffffffffffffff808211156115a357600080fd5b818701915087601f8301126115b757600080fd5b8135818111156115c9576115c9611543565b604051601f8201601f19908116603f011681019083821181831017156115f1576115f1611543565b816040528281528a602084870101111561160a57600080fd5b82602086016020830137600060208483010152809550505050505092959194509250565b6000806040838503121561164157600080fd5b61164a8361142f565b91506116586020840161142f565b90509250929050565b634e487b7160e01b600052601160045260246000fd5b8181038181111561055957610559611661565b6000826116a757634e487b7160e01b600052601260045260246000fd5b500490565b600181811c908216806116c057607f821691505b6020821081036116e057634e487b7160e01b600052602260045260246000fd5b50919050565b8082018082111561055957610559611661565b60006020828403121561170b57600080fd5b5051919050565b60006020828403121561172457600080fd5b8151801515811461146657600080fd5b600181815b8085111561176f57816000190482111561175557611755611661565b8085161561176257918102915b93841c9390800290611739565b509250929050565b60008261178657506001610559565b8161179357506000610559565b81600181146117a957600281146117b3576117cf565b6001915050610559565b60ff8411156117c4576117c4611661565b50506001821b610559565b5060208310610133831016604e8410600b84101617156117f2575081810a610559565b6117fc8383611734565b806000190482111561181057611810611661565b029392505050565b60006114668383611777565b60008651611836818460208b0161146d565b6bffffffffffffffffffffffff19606097881b8116919093019081529490951b166014840152602883019190915260488201526068019291505056fe6d696e7428616464726573732c75696e743235362c75696e743235362c627974657329a2646970667358221220104747a90c3baa9fd5e038f8d47b2268daffd2bcf3ce9b0eff40535711cab4dc64736f6c63430008110033",
  "devdoc": {
    "kind": "dev",
    "methods": {
      "allowance(address,address)": {
        "details": "See {IERC20-allowance}."
      },
      "approve(address,uint256)": {
        "details": "See {IERC20-approve}. NOTE: If `amount` is the maximum `uint256`, the allowance is not updated on `transferFrom`. This is semantically equivalent to an infinite approval. Requirements: - `spender` cannot be the zero address."
      },
      "balanceOf(address)": {
        "details": "See {IERC20-balanceOf}."
      },
      "burn(uint256)": {
        "details": "Destroys `amount` tokens from the caller. See {ERC20-_burn}."
      },
      "burnFrom(address,uint256)": {
        "details": "Destroys `amount` tokens from `account`, deducting from the caller's allowance. See {ERC20-_burn} and {ERC20-allowance}. Requirements: - the caller must have allowance for ``accounts``'s tokens of at least `amount`."
      },
      "decimals()": {
        "details": "Returns the number of decimals used to get its user representation. For example, if `decimals` equals `2`, a balance of `505` tokens should be displayed to a user as `5.05` (`505 / 10 ** 2`). Tokens usually opt for a value of 18, imitating the relationship between Ether and Wei. This is the value {ERC20} uses, unless this function is overridden; NOTE: This information is only used for _display_ purposes: it in no way affects any of the arithmetic of the contract, including {IERC20-balanceOf} and {IERC20-transfer}."
      },
      "decreaseAllowance(address,uint256)": {
        "details": "Atomically decreases the allowance granted to `spender` by the caller. This is an alternative to {approve} that can be used as a mitigation for problems described in {IERC20-approve}. Emits an {Approval} event indicating the updated allowance. Requirements: - `spender` cannot be the zero address. - `spender` must have allowance for the caller of at least `subtractedValue`."
      },
      "increaseAllowance(address,uint256)": {
        "details": "Atomically increases the allowance granted to `spender` by the caller. This is an alternative to {approve} that can be used as a mitigation for problems described in {IERC20-approve}. Emits an {Approval} event indicating the updated allowance. Requirements: - `spender` cannot be the zero address."
      },
      "name()": {
        "details": "Returns the name of the token."
      },
      "owner()": {
        "details": "Returns the address of the current owner."
      },
      "paused()": {
        "details": "Returns true if the contract is paused, and false otherwise."
      },
      "renounceOwnership()": {
        "details": "Leaves the contract without owner. It will not be possible to call `onlyOwner` functions anymore. Can only be called by the current owner. NOTE: Renouncing ownership will leave the contract without an owner, thereby removing any functionality that is only available to the owner."
      },
      "symbol()": {
        "details": "Returns the symbol of the token, usually a shorter version of the name."
      },
      "totalSupply()": {
        "details": "See {IERC20-totalSupply}."
      },
      "transfer(address,uint256)": {
        "details": "See {IERC20-transfer}. Requirements: - `to` cannot be the zero address. - the caller must have a balance of at least `amount`."
      },
      "transferFrom(address,address,uint256)": {
        "details": "See {IERC20-transferFrom}. Emits an {Approval} event indicating the updated allowance. This is not required by the EIP. See the note at the beginning of {ERC20}. NOTE: Does not update the allowance if the current allowance is the maximum `uint256`. Requirements: - `from` and `to` cannot be the zero address. - `from` must have a balance of at least `amount`. - the caller must have allowance for ``from``'s tokens of at least `amount`."
      },
      "transferOwnership(address)": {
        "details": "Transfers ownership of the contract to a new account (`newOwner`). Can only be called by the current owner."
      }
    },
    "version": 1
  },
  "userdoc": {
    "kind": "user",
    "methods": {},
    "version": 1
  },
  "storageLayout": {
    "storage": [
      {
        "astId": 236,
        "contract": "contracts/Shield.sol:Shield",
        "label": "_balances",
        "offset": 0,
        "slot": "0",
        "type": "t_mapping(t_address,t_uint256)"
      },
      {
        "astId": 242,
        "contract": "contracts/Shield.sol:Shield",
        "label": "_allowances",
        "offset": 0,
        "slot": "1",
        "type": "t_mapping(t_address,t_mapping(t_address,t_uint256))"
      },
      {
        "astId": 244,
        "contract": "contracts/Shield.sol:Shield",
        "label": "_totalSupply",
        "offset": 0,
        "slot": "2",
        "type": "t_uint256"
      },
      {
        "astId": 246,
        "contract": "contracts/Shield.sol:Shield",
        "label": "_name",
        "offset": 0,
        "slot": "3",
        "type": "t_string_storage"
      },
      {
        "astId": 248,
        "contract": "contracts/Shield.sol:Shield",
        "label": "_symbol",
        "offset": 0,
        "slot": "4",
        "type": "t_string_storage"
      },
      {
        "astId": 130,
        "contract": "contracts/Shield.sol:Shield",
        "label": "_paused",
        "offset": 0,
        "slot": "5",
        "type": "t_bool"
      },
      {
        "astId": 7,
        "contract": "contracts/Shield.sol:Shield",
        "label": "_owner",
        "offset": 1,
        "slot": "5",
        "type": "t_address"
      },
      {
        "astId": 1010,
        "contract": "contracts/Shield.sol:Shield",
        "label": "authSigner",
        "offset": 0,
        "slot": "6",
        "type": "t_address"
      },
      {
        "astId": 1014,
        "contract": "contracts/Shield.sol:Shield",
        "label": "periodicMinted",
        "offset": 0,
        "slot": "7",
        "type": "t_mapping(t_uint256,t_uint256)"
      },
      {
        "astId": 1018,
        "contract": "contracts/Shield.sol:Shield",
        "label": "usedMintNonces",
        "offset": 0,
        "slot": "8",
        "type": "t_mapping(t_uint256,t_bool)"
      }
    ],
    "types": {
      "t_address": {
        "encoding": "inplace",
        "label": "address",
        "numberOfBytes": "20"
      },
      "t_bool": {
        "encoding": "inplace",
        "label": "bool",
        "numberOfBytes": "1"
      },
      "t_mapping(t_address,t_mapping(t_address,t_uint256))": {
        "encoding": "mapping",
        "key": "t_address",
        "label": "mapping(address => mapping(address => uint256))",
        "numberOfBytes": "32",
        "value": "t_mapping(t_address,t_uint256)"
      },
      "t_mapping(t_address,t_uint256)": {
        "encoding": "mapping",
        "key": "t_address",
        "label": "mapping(address => uint256)",
        "numberOfBytes": "32",
        "value": "t_uint256"
      },
      "t_mapping(t_uint256,t_bool)": {
        "encoding": "mapping",
        "key": "t_uint256",
        "label": "mapping(uint256 => bool)",
        "numberOfBytes": "32",
        "value": "t_bool"
      },
      "t_mapping(t_uint256,t_uint256)": {
        "encoding": "mapping",
        "key": "t_uint256",
        "label": "mapping(uint256 => uint256)",
        "numberOfBytes": "32",
        "value": "t_uint256"
      },
      "t_string_storage": {
        "encoding": "bytes",
        "label": "string",
        "numberOfBytes": "32"
      },
      "t_uint256": {
        "encoding": "inplace",
        "label": "uint256",
        "numberOfBytes": "32"
      }
    }
  }
}