{
  "address": "0x35AB13313d581e3e92b0Bcb82524634435F2734c",
  "abi": [
    {
      "inputs": [],
      "stateMutability": "nonpayable",
      "type": "constructor"
    },
    {
      "anonymous": false,
      "inputs": [
        {
          "indexed": true,
          "internalType": "address",
          "name": "owner",
          "type": "address"
        },
        {
          "indexed": true,
          "internalType": "address",
          "name": "spender",
          "type": "address"
        },
        {
          "indexed": false,
          "internalType": "uint256",
          "name": "value",
          "type": "uint256"
        }
      ],
      "name": "Approval",
      "type": "event"
    },
    {
      "anonymous": false,
      "inputs": [
        {
          "indexed": true,
          "internalType": "address",
          "name": "burner",
          "type": "address"
        },
        {
          "indexed": false,
          "internalType": "uint256",
          "name": "amount",
          "type": "uint256"
        },
        {
          "indexed": false,
          "internalType": "uint256",
          "name": "currentPeriod",
          "type": "uint256"
        }
      ],
      "name": "Burn",
      "type": "event"
    },
    {
      "anonymous": false,
      "inputs": [
        {
          "indexed": true,
          "internalType": "address",
          "name": "from",
          "type": "address"
        },
        {
          "indexed": false,
          "internalType": "uint256",
          "name": "amount",
          "type": "uint256"
        },
        {
          "indexed": false,
          "internalType": "uint256",
          "name": "currentPeriod",
          "type": "uint256"
        }
      ],
      "name": "BurnFrom",
      "type": "event"
    },
    {
      "anonymous": false,
      "inputs": [
        {
          "indexed": true,
          "internalType": "address",
          "name": "wallet",
          "type": "address"
        },
        {
          "indexed": true,
          "internalType": "address",
          "name": "to",
          "type": "address"
        },
        {
          "indexed": false,
          "internalType": "uint256",
          "name": "amount",
          "type": "uint256"
        },
        {
          "indexed": true,
          "internalType": "uint256",
          "name": "nonce",
          "type": "uint256"
        },
        {
          "indexed": false,
          "internalType": "uint256",
          "name": "currentPeriod",
          "type": "uint256"
        }
      ],
      "name": "Mint",
      "type": "event"
    },
    {
      "anonymous": false,
      "inputs": [
        {
          "indexed": true,
          "internalType": "address",
          "name": "previousOwner",
          "type": "address"
        },
        {
          "indexed": true,
          "internalType": "address",
          "name": "newOwner",
          "type": "address"
        }
      ],
      "name": "OwnershipTransferred",
      "type": "event"
    },
    {
      "anonymous": false,
      "inputs": [
        {
          "indexed": false,
          "internalType": "address",
          "name": "account",
          "type": "address"
        }
      ],
      "name": "Paused",
      "type": "event"
    },
    {
      "anonymous": false,
      "inputs": [
        {
          "indexed": true,
          "internalType": "address",
          "name": "from",
          "type": "address"
        },
        {
          "indexed": true,
          "internalType": "address",
          "name": "to",
          "type": "address"
        },
        {
          "indexed": false,
          "internalType": "uint256",
          "name": "value",
          "type": "uint256"
        }
      ],
      "name": "Transfer",
      "type": "event"
    },
    {
      "anonymous": false,
      "inputs": [
        {
          "indexed": false,
          "internalType": "address",
          "name": "account",
          "type": "address"
        }
      ],
      "name": "Unpaused",
      "type": "event"
    },
    {
      "anonymous": false,
      "inputs": [
        {
          "indexed": true,
          "internalType": "address",
          "name": "wallet",
          "type": "address"
        },
        {
          "indexed": false,
          "internalType": "uint256",
          "name": "amount",
          "type": "uint256"
        },
        {
          "indexed": true,
          "internalType": "uint256",
          "name": "nonce",
          "type": "uint256"
        }
      ],
      "name": "Withdraw",
      "type": "event"
    },
    {
      "inputs": [],
      "name": "HALVING_PERIOD",
      "outputs": [
        {
          "internalType": "uint256",
          "name": "",
          "type": "uint256"
        }
      ],
      "stateMutability": "view",
      "type": "function"
    },
    {
      "inputs": [],
      "name": "INITIAL_MINTABLE_PER_PERIOD",
      "outputs": [
        {
          "internalType": "uint256",
          "name": "",
          "type": "uint256"
        }
      ],
      "stateMutability": "view",
      "type": "function"
    },
    {
      "inputs": [],
      "name": "RESERVE",
      "outputs": [
        {
          "internalType": "uint256",
          "name": "",
          "type": "uint256"
        }
      ],
      "stateMutability": "view",
      "type": "function"
    },
    {
      "inputs": [
        {
          "internalType": "address",
          "name": "owner",
          "type": "address"
        },
        {
          "internalType": "address",
          "name": "spender",
          "type": "address"
        }
      ],
      "name": "allowance",
      "outputs": [
        {
          "internalType": "uint256",
          "name": "",
          "type": "uint256"
        }
      ],
      "stateMutability": "view",
      "type": "function"
    },
    {
      "inputs": [
        {
          "internalType": "address",
          "name": "spender",
          "type": "address"
        },
        {
          "internalType": "uint256",
          "name": "amount",
          "type": "uint256"
        }
      ],
      "name": "approve",
      "outputs": [
        {
          "internalType": "bool",
          "name": "",
          "type": "bool"
        }
      ],
      "stateMutability": "nonpayable",
      "type": "function"
    },
    {
      "inputs": [],
      "name": "authSigner",
      "outputs": [
        {
          "internalType": "address",
          "name": "",
          "type": "address"
        }
      ],
      "stateMutability": "view",
      "type": "function"
    },
    {
      "inputs": [
        {
          "internalType": "address",
          "name": "account",
          "type": "address"
        }
      ],
      "name": "balanceOf",
      "outputs": [
        {
          "internalType": "uint256",
          "name": "",
          "type": "uint256"
        }
      ],
      "stateMutability": "view",
      "type": "function"
    },
    {
      "inputs": [
        {
          "internalType": "uint256",
          "name": "amount",
          "type": "uint256"
        }
      ],
      "name": "burn",
      "outputs": [],
      "stateMutability": "nonpayable",
      "type": "function"
    },
    {
      "inputs": [
        {
          "internalType": "address",
          "name": "account",
          "type": "address"
        },
        {
          "internalType": "uint256",
          "name": "amount",
          "type": "uint256"
        }
      ],
      "name": "burnFrom",
      "outputs": [],
      "stateMutability": "nonpayable",
      "type": "function"
    },
    {
      "inputs": [],
      "name": "currentMintCap",
      "outputs": [
        {
          "internalType": "uint256",
          "name": "",
          "type": "uint256"
        }
      ],
      "stateMutability": "view",
      "type": "function"
    },
    {
      "inputs": [],
      "name": "currentPeriod",
      "outputs": [
        {
          "internalType": "uint256",
          "name": "",
          "type": "uint256"
        }
      ],
      "stateMutability": "view",
      "type": "function"
    },
    {
      "inputs": [],
      "name": "decimals",
      "outputs": [
        {
          "internalType": "uint8",
          "name": "",
          "type": "uint8"
        }
      ],
      "stateMutability": "view",
      "type": "function"
    },
    {
      "inputs": [
        {
          "internalType": "address",
          "name": "spender",
          "type": "address"
        },
        {
          "internalType": "uint256",
          "name": "subtractedValue",
          "type": "uint256"
        }
      ],
      "name": "decreaseAllowance",
      "outputs": [
        {
          "internalType": "bool",
          "name": "",
          "type": "bool"
        }
      ],
      "stateMutability": "nonpayable",
      "type": "function"
    },
    {
      "inputs": [],
      "name": "deployTime",
      "outputs": [
        {
          "internalType": "uint256",
          "name": "",
          "type": "uint256"
        }
      ],
      "stateMutability": "view",
      "type": "function"
    },
    {
      "inputs": [
        {
          "internalType": "address",
          "name": "spender",
          "type": "address"
        },
        {
          "internalType": "uint256",
          "name": "addedValue",
          "type": "uint256"
        }
      ],
      "name": "increaseAllowance",
      "outputs": [
        {
          "internalType": "bool",
          "name": "",
          "type": "bool"
        }
      ],
      "stateMutability": "nonpayable",
      "type": "function"
    },
    {
      "inputs": [
        {
          "internalType": "address",
          "name": "_to",
          "type": "address"
        },
        {
          "internalType": "uint256",
          "name": "_amount",
          "type": "uint256"
        }
      ],
      "name": "mint",
      "outputs": [],
      "stateMutability": "nonpayable",
      "type": "function"
    },
    {
      "inputs": [
        {
          "internalType": "address",
          "name": "_to",
          "type": "address"
        },
        {
          "internalType": "uint256",
          "name": "_amount",
          "type": "uint256"
        },
        {
          "internalType": "uint256",
          "name": "_nonce",
          "type": "uint256"
        },
        {
          "internalType": "bytes",
          "name": "sig",
          "type": "bytes"
        }
      ],
      "name": "mint",
      "outputs": [],
      "stateMutability": "nonpayable",
      "type": "function"
    },
    {
      "inputs": [],
      "name": "name",
      "outputs": [
        {
          "internalType": "string",
          "name": "",
          "type": "string"
        }
      ],
      "stateMutability": "view",
      "type": "function"
    },
    {
      "inputs": [],
      "name": "owner",
      "outputs": [
        {
          "internalType": "address",
          "name": "",
          "type": "address"
        }
      ],
      "stateMutability": "view",
      "type": "function"
    },
    {
      "inputs": [],
      "name": "pause",
      "outputs": [],
      "stateMutability": "nonpayable",
      "type": "function"
    },
    {
      "inputs": [],
      "name": "paused",
      "outputs": [
        {
          "internalType": "bool",
          "name": "",
          "type": "bool"
        }
      ],
      "stateMutability": "view",
      "type": "function"
    },
    {
      "inputs": [
        {
          "internalType": "address",
          "name": "tokenAddress",
          "type": "address"
        }
      ],
      "name": "recoverERC20",
      "outputs": [],
      "stateMutability": "nonpayable",
      "type": "function"
    },
    {
      "inputs": [],
      "name": "renounceOwnership",
      "outputs": [],
      "stateMutability": "nonpayable",
      "type": "function"
    },
    {
      "inputs": [
        {
          "internalType": "address",
          "name": "_authSigner",
          "type": "address"
        }
      ],
      "name": "setAuthSigner",
      "outputs": [],
      "stateMutability": "nonpayable",
      "type": "function"
    },
    {
      "inputs": [],
      "name": "symbol",
      "outputs": [
        {
          "internalType": "string",
          "name": "",
          "type": "string"
        }
      ],
      "stateMutability": "view",
      "type": "function"
    },
    {
      "inputs": [],
      "name": "totalSupply",
      "outputs": [
        {
          "internalType": "uint256",
          "name": "",
          "type": "uint256"
        }
      ],
      "stateMutability": "view",
      "type": "function"
    },
    {
      "inputs": [
        {
          "internalType": "address",
          "name": "to",
          "type": "address"
        },
        {
          "internalType": "uint256",
          "name": "amount",
          "type": "uint256"
        }
      ],
      "name": "transfer",
      "outputs": [
        {
          "internalType": "bool",
          "name": "",
          "type": "bool"
        }
      ],
      "stateMutability": "nonpayable",
      "type": "function"
    },
    {
      "inputs": [
        {
          "internalType": "address",
          "name": "from",
          "type": "address"
        },
        {
          "internalType": "address",
          "name": "to",
          "type": "address"
        },
        {
          "internalType": "uint256",
          "name": "amount",
          "type": "uint256"
        }
      ],
      "name": "transferFrom",
      "outputs": [
        {
          "internalType": "bool",
          "name": "",
          "type": "bool"
        }
      ],
      "stateMutability": "nonpayable",
      "type": "function"
    },
    {
      "inputs": [
        {
          "internalType": "address",
          "name": "newOwner",
          "type": "address"
        }
      ],
      "name": "transferOwnership",
      "outputs": [],
      "stateMutability": "nonpayable",
      "type": "function"
    },
    {
      "inputs": [],
      "name": "unpause",
      "outputs": [],
      "stateMutability": "nonpayable",
      "type": "function"
    },
    {
      "inputs": [
        {
          "internalType": "uint256",
          "name": "amount",
          "type": "uint256"
        },
        {
          "internalType": "uint256",
          "name": "_nonce",
          "type": "uint256"
        },
        {
          "internalType": "bytes",
          "name": "sig",
          "type": "bytes"
        }
      ],
      "name": "withdraw",
      "outputs": [],
      "stateMutability": "nonpayable",
      "type": "function"
    }
  ],
  "transactionHash": "0xbdde093631dd867aa6d3bf47bc391591477324a5ef35b650ef6fd5715547a53f",
  "args": [],
  "numDeployments": 1,
  "solcInputHash": "62ea3cc44358c07e8a35d5797da978bd",
  "bytecode": "0x60a06040523480156200001157600080fd5b503360408051808201825260068082526514d21251531160d21b6020808401829052845180860190955291845290830152906003620000518382620004a6565b506004620000608282620004a6565b50506005805460ff1916905550620000783362000143565b6001600160a01b038116620000c35760405162461bcd60e51b815260206004820152600c60248201526b24b73b30b634b21030b2323960a11b60448201526064015b60405180910390fd5b600680546001600160a01b0319166001600160a01b03831617905542608052620000f9336a01a784379d99db420000006200019d565b50600080805260076020527f6d5257204ebe7d88fd91ae87941cb2dd9d8062b64ae5a2bd2d28ec40b9fbf6df556200013d336a01a784379d99db420000006200019d565b620006ef565b600580546001600160a01b03838116610100818102610100600160a81b031985161790945560405193909204169182907f8be0079c531659141344cd1fd0a4f28419497f9722a3daafe3b4186f6b6457e090600090a35050565b620001a762000246565b8160076000620001b66200027c565b815260200190815260200160002054620001d1919062000588565b1115620002215760405162461bcd60e51b815260206004820152601760248201527f4578636565642063757272656e74206d696e74206361700000000000000000006044820152606401620000ba565b6200022b6200029e565b620002428282620002e860201b62000c0b1760201c565b5050565b6000620002526200027c565b6200025f906002620006a1565b62000277906b06765c793fa10079d0000000620006b6565b905090565b600062ed4e0060805142620002929190620006d9565b620002779190620006b6565b60055460ff1615620002e65760405162461bcd60e51b815260206004820152601060248201526f14185d5cd8589b194e881c185d5cd95960821b6044820152606401620000ba565b565b6001600160a01b038216620003405760405162461bcd60e51b815260206004820152601f60248201527f45524332303a206d696e7420746f20746865207a65726f2061646472657373006044820152606401620000ba565b6200034e60008383620003db565b806002600082825462000362919062000588565b90915550506001600160a01b038216600090815260208190526040812080548392906200039190849062000588565b90915550506040518181526001600160a01b038316906000907fddf252ad1be2c89b69c2b068fc378daa952ba7f163c4a11628f55a4df523b3ef9060200160405180910390a35050565b620003f3838383620003fd60201b62000aae1760201c565b620003fd6200029e565b505050565b634e487b7160e01b600052604160045260246000fd5b600181811c908216806200042d57607f821691505b6020821081036200044e57634e487b7160e01b600052602260045260246000fd5b50919050565b601f821115620003fd57600081815260208120601f850160051c810160208610156200047d5750805b601f850160051c820191505b818110156200049e5782815560010162000489565b505050505050565b81516001600160401b03811115620004c257620004c262000402565b620004da81620004d3845462000418565b8462000454565b602080601f831160018114620005125760008415620004f95750858301515b600019600386901b1c1916600185901b1785556200049e565b600085815260208120601f198616915b82811015620005435788860151825594840194600190910190840162000522565b5085821015620005625787850151600019600388901b60f8161c191681555b5050505050600190811b01905550565b634e487b7160e01b600052601160045260246000fd5b808201808211156200059e576200059e62000572565b92915050565b600181815b80851115620005e5578160001904821115620005c957620005c962000572565b80851615620005d757918102915b93841c9390800290620005a9565b509250929050565b600082620005fe575060016200059e565b816200060d575060006200059e565b8160018114620006265760028114620006315762000651565b60019150506200059e565b60ff84111562000645576200064562000572565b50506001821b6200059e565b5060208310610133831016604e8410600b841016171562000676575081810a6200059e565b620006828383620005a4565b806000190482111562000699576200069962000572565b029392505050565b6000620006af8383620005ed565b9392505050565b600082620006d457634e487b7160e01b600052601260045260246000fd5b500490565b818103818111156200059e576200059e62000572565b608051611b19620007126000396000818161035401526104bb0152611b196000f3fe608060405234801561001057600080fd5b50600436106101e55760003560e01c8063715018a61161010f5780639d2cc436116100a2578063b42348ac11610071578063b42348ac146103fb578063d75564581461040e578063dd62ed3e14610416578063f2fde38b1461042957600080fd5b80639d2cc436146103b05780639e8c708e146103c2578063a457c2d7146103d5578063a9059cbb146103e857600080fd5b80637a40624b116100de5780637a40624b1461034f5780638456cb59146103765780638da5cb5b1461037e57806395d89b41146103a857600080fd5b8063715018a61461030e578063731133e914610316578063744fb6ca1461032957806379cc67901461033c57600080fd5b8063395093511161018757806342966c681161015657806342966c68146102b457806354bd5950146102c75780635c975abb146102da57806370a08231146102e557600080fd5b8063395093511461027c5780633adde9c11461028f5780633f4ba83a1461029957806340c10f19146102a157600080fd5b8063095ea7b3116101c3578063095ea7b31461022f57806318160ddd1461025257806323b872dd1461025a578063313ce5671461026d57600080fd5b80630532bca1146101ea57806306040618146101ff57806306fdde031461021a575b600080fd5b6101fd6101f83660046115de565b61043c565b005b6102076104b0565b6040519081526020015b60405180910390f35b6102226104ef565b6040516102119190611624565b61024261023d366004611657565b610581565b6040519015158152602001610211565b600254610207565b610242610268366004611681565b61059b565b60405160128152602001610211565b61024261028a366004611657565b6105bf565b61020762ed4e0081565b6101fd6105e1565b6101fd6102af366004611657565b6105f3565b6101fd6102c23660046116bd565b610601565b6102076b06765c793fa10079d000000081565b60055460ff16610242565b6102076102f33660046115de565b6001600160a01b031660009081526020819052604090205490565b6101fd610658565b6101fd610324366004611779565b61066a565b6101fd6103373660046117da565b61078a565b6101fd61034a366004611657565b610926565b6102077f000000000000000000000000000000000000000000000000000000000000000081565b6101fd610988565b60055461010090046001600160a01b03165b6040516001600160a01b039091168152602001610211565b610222610998565b6102076a01a784379d99db4200000081565b6101fd6103d03660046115de565b6109a7565b6102426103e3366004611657565b610ab3565b6102426103f6366004611657565b610b2e565b600654610390906001600160a01b031681565b610207610b3c565b61020761042436600461182a565b610b67565b6101fd6104373660046115de565b610b92565b610444610cf6565b6001600160a01b03811661048e5760405162461bcd60e51b815260206004820152600c60248201526b24b73b30b634b21030b2323960a11b60448201526064015b60405180910390fd5b600680546001600160a01b0319166001600160a01b0392909216919091179055565b600062ed4e006104e07f000000000000000000000000000000000000000000000000000000000000000042611873565b6104ea9190611886565b905090565b6060600380546104fe906118a8565b80601f016020809104026020016040519081016040528092919081815260200182805461052a906118a8565b80156105775780601f1061054c57610100808354040283529160200191610577565b820191906000526020600020905b81548152906001019060200180831161055a57829003601f168201915b5050505050905090565b60003361058f818585610d56565b60019150505b92915050565b6000336105a9858285610e7a565b6105b4858585610ef4565b506001949350505050565b60003361058f8185856105d28383610b67565b6105dc91906118e2565b610d56565b6105e9610cf6565b6105f16110cd565b565b6105fd828261111f565b5050565b6106096111ad565b610612816111f3565b337f49995e5dd6158cf69ad3e9777c46755a1a826a446c6416992167462dad033b2a8261063d6104b0565b6040805192835260208301919091520160405180910390a250565b610660610cf6565b6105f160006111fd565b33600090815260086020908152604080832085845290915290205460ff16156106c65760405162461bcd60e51b815260206004820152600e60248201526d139bdb98d94818dbdb9cdd5b595960921b6044820152606401610485565b6106eb604051806060016040528060238152602001611a9a6023913933858585611257565b6107075760405162461bcd60e51b8152600401610485906118f5565b3360009081526008602090815260408083208584529091529020805460ff19166001179055610736848461111f565b816001600160a01b038516337f458f5fa412d0f69b08dd84872b0215675cc67bc1d5b6fd93300a1c3878b861968661076c6104b0565b6040805192835260208301919091520160405180910390a450505050565b823383836107966111ad565b836107b26102f36005546001600160a01b036101009091041690565b10156107f75760405162461bcd60e51b8152602060048201526014602482015273496e73756666696369656e742042616c616e636560601b6044820152606401610485565b6001600160a01b038316600090815260086020908152604080832085845290915290205460ff16156108645760405162461bcd60e51b81526020600482015260166024820152751b9bdb98d948185b1c9958591e4818dbdb9cdd5b595960521b6044820152606401610485565b610889604051806060016040528060278152602001611abd6027913984868585611257565b6108a55760405162461bcd60e51b8152600401610485906118f5565b3360009081526008602090815260408083208984529091529020805460ff191660011790556005546108e69061010090046001600160a01b03163389610ef4565b604051878152869033907ff279e6a1f5e320cca91135676d9cb6e44ca8a08c0b88342bcdb1144f6511b5689060200160405180910390a350505050505050565b61092e6111ad565b6109388282611304565b816001600160a01b03167fa3e0adb4960cea65a9770d6f76fd931fed41cc575d4376e126bd426d3645e54b8261096c6104b0565b6040805192835260208301919091520160405180910390a25050565b610990610cf6565b6105f1611319565b6060600480546104fe906118a8565b6109af610cf6565b806001600160a01b03811663a9059cbb6109d76005546001600160a01b036101009091041690565b6040516370a0823160e01b81523060048201526001600160a01b038516906370a0823190602401602060405180830381865afa158015610a1b573d6000803e3d6000fd5b505050506040513d601f19601f82011682018060405250810190610a3f9190611920565b6040516001600160e01b031960e085901b1681526001600160a01b03909216600483015260248201526044016020604051808303816000875af1158015610a8a573d6000803e3d6000fd5b505050506040513d601f19601f82011682018060405250810190610aae9190611939565b505050565b60003381610ac18286610b67565b905083811015610b215760405162461bcd60e51b815260206004820152602560248201527f45524332303a2064656372656173656420616c6c6f77616e63652062656c6f77604482015264207a65726f60d81b6064820152608401610485565b6105b48286868403610d56565b60003361058f818585610ef4565b6000610b466104b0565b610b51906002611a3f565b6104ea906b06765c793fa10079d0000000611886565b6001600160a01b03918216600090815260016020908152604080832093909416825291909152205490565b610b9a610cf6565b6001600160a01b038116610bff5760405162461bcd60e51b815260206004820152602660248201527f4f776e61626c653a206e6577206f776e657220697320746865207a65726f206160448201526564647265737360d01b6064820152608401610485565b610c08816111fd565b50565b6001600160a01b038216610c615760405162461bcd60e51b815260206004820152601f60248201527f45524332303a206d696e7420746f20746865207a65726f2061646472657373006044820152606401610485565b610c6d60008383611356565b8060026000828254610c7f91906118e2565b90915550506001600160a01b03821660009081526020819052604081208054839290610cac9084906118e2565b90915550506040518181526001600160a01b038316906000907fddf252ad1be2c89b69c2b068fc378daa952ba7f163c4a11628f55a4df523b3ef9060200160405180910390a35050565b6005546001600160a01b036101009091041633146105f15760405162461bcd60e51b815260206004820181905260248201527f4f776e61626c653a2063616c6c6572206973206e6f7420746865206f776e65726044820152606401610485565b6001600160a01b038316610db85760405162461bcd60e51b8152602060048201526024808201527f45524332303a20617070726f76652066726f6d20746865207a65726f206164646044820152637265737360e01b6064820152608401610485565b6001600160a01b038216610e195760405162461bcd60e51b815260206004820152602260248201527f45524332303a20617070726f766520746f20746865207a65726f206164647265604482015261737360f01b6064820152608401610485565b6001600160a01b0383811660008181526001602090815260408083209487168084529482529182902085905590518481527f8c5be1e5ebec7d5bd14f71427d1e84f3dd0314c0f7b2291e5b200ac8c7c3b925910160405180910390a3505050565b6000610e868484610b67565b90506000198114610eee5781811015610ee15760405162461bcd60e51b815260206004820152601d60248201527f45524332303a20696e73756666696369656e7420616c6c6f77616e63650000006044820152606401610485565b610eee8484848403610d56565b50505050565b6001600160a01b038316610f585760405162461bcd60e51b815260206004820152602560248201527f45524332303a207472616e736665722066726f6d20746865207a65726f206164604482015264647265737360d81b6064820152608401610485565b6001600160a01b038216610fba5760405162461bcd60e51b815260206004820152602360248201527f45524332303a207472616e7366657220746f20746865207a65726f206164647260448201526265737360e81b6064820152608401610485565b610fc5838383611356565b6001600160a01b0383166000908152602081905260409020548181101561103d5760405162461bcd60e51b815260206004820152602660248201527f45524332303a207472616e7366657220616d6f756e7420657863656564732062604482015265616c616e636560d01b6064820152608401610485565b6001600160a01b038085166000908152602081905260408082208585039055918516815290812080548492906110749084906118e2565b92505081905550826001600160a01b0316846001600160a01b03167fddf252ad1be2c89b69c2b068fc378daa952ba7f163c4a11628f55a4df523b3ef846040516110c091815260200190565b60405180910390a3610eee565b6110d561135e565b6005805460ff191690557f5db9ee0a495bf2e6ff9c91a7834c1ba4fdd244a5e8aa4e537bd38aeae4b073aa335b6040516001600160a01b03909116815260200160405180910390a1565b611127610b3c565b81600760006111346104b0565b81526020019081526020016000205461114d91906118e2565b111561119b5760405162461bcd60e51b815260206004820152601760248201527f4578636565642063757272656e74206d696e74206361700000000000000000006044820152606401610485565b6111a36111ad565b6105fd8282610c0b565b60055460ff16156105f15760405162461bcd60e51b815260206004820152601060248201526f14185d5cd8589b194e881c185d5cd95960821b6044820152606401610485565b610c0833826113a7565b600580546001600160a01b03838116610100818102610100600160a81b031985161790945560405193909204169182907f8be0079c531659141344cd1fd0a4f28419497f9722a3daafe3b4186f6b6457e090600090a35050565b6000806112d68730888888604051602001611276959493929190611a4b565b60408051601f1981840301815282825280516020918201207f19457468657265756d205369676e6564204d6573736167653a0a33320000000084830152603c8085019190915282518085039091018152605c909301909152815191012090565b6006549091506001600160a01b03166112ef8285611501565b6001600160a01b031614979650505050505050565b61130f823383610e7a565b6105fd82826113a7565b6113216111ad565b6005805460ff191660011790557f62e78cea01bee320cd4e420270b5ea74000d11b0c9f74754ebdbfc544b05a2586111023390565b610aae6111ad565b60055460ff166105f15760405162461bcd60e51b815260206004820152601460248201527314185d5cd8589b194e881b9bdd081c185d5cd95960621b6044820152606401610485565b6001600160a01b0382166114075760405162461bcd60e51b815260206004820152602160248201527f45524332303a206275726e2066726f6d20746865207a65726f206164647265736044820152607360f81b6064820152608401610485565b61141382600083611356565b6001600160a01b038216600090815260208190526040902054818110156114875760405162461bcd60e51b815260206004820152602260248201527f45524332303a206275726e20616d6f756e7420657863656564732062616c616e604482015261636560f01b6064820152608401610485565b6001600160a01b03831660009081526020819052604081208383039055600280548492906114b6908490611873565b90915550506040518281526000906001600160a01b038516907fddf252ad1be2c89b69c2b068fc378daa952ba7f163c4a11628f55a4df523b3ef9060200160405180910390a3505050565b60008060008061151085611580565b6040805160008152602081018083528b905260ff8516918101919091526060810183905260808101829052929550909350915060019060a0016020604051602081039080840390855afa15801561156b573d6000803e3d6000fd5b5050604051601f190151979650505050505050565b600080600083516041146115a65760405162461bcd60e51b8152600401610485906118f5565b5050506020810151604082015160609092015160001a92909190565b80356001600160a01b03811681146115d957600080fd5b919050565b6000602082840312156115f057600080fd5b6115f9826115c2565b9392505050565b60005b8381101561161b578181015183820152602001611603565b50506000910152565b6020815260008251806020840152611643816040850160208701611600565b601f01601f19169190910160400192915050565b6000806040838503121561166a57600080fd5b611673836115c2565b946020939093013593505050565b60008060006060848603121561169657600080fd5b61169f846115c2565b92506116ad602085016115c2565b9150604084013590509250925092565b6000602082840312156116cf57600080fd5b5035919050565b634e487b7160e01b600052604160045260246000fd5b600082601f8301126116fd57600080fd5b813567ffffffffffffffff80821115611718576117186116d6565b604051601f8301601f19908116603f01168101908282118183101715611740576117406116d6565b8160405283815286602085880101111561175957600080fd5b836020870160208301376000602085830101528094505050505092915050565b6000806000806080858703121561178f57600080fd5b611798856115c2565b93506020850135925060408501359150606085013567ffffffffffffffff8111156117c257600080fd5b6117ce878288016116ec565b91505092959194509250565b6000806000606084860312156117ef57600080fd5b8335925060208401359150604084013567ffffffffffffffff81111561181457600080fd5b611820868287016116ec565b9150509250925092565b6000806040838503121561183d57600080fd5b611846836115c2565b9150611854602084016115c2565b90509250929050565b634e487b7160e01b600052601160045260246000fd5b818103818111156105955761059561185d565b6000826118a357634e487b7160e01b600052601260045260246000fd5b500490565b600181811c908216806118bc57607f821691505b6020821081036118dc57634e487b7160e01b600052602260045260246000fd5b50919050565b808201808211156105955761059561185d565b602080825260119082015270496e76616c6964207369676e617475726560781b604082015260600190565b60006020828403121561193257600080fd5b5051919050565b60006020828403121561194b57600080fd5b815180151581146115f957600080fd5b600181815b8085111561199657816000190482111561197c5761197c61185d565b8085161561198957918102915b93841c9390800290611960565b509250929050565b6000826119ad57506001610595565b816119ba57506000610595565b81600181146119d057600281146119da576119f6565b6001915050610595565b60ff8411156119eb576119eb61185d565b50506001821b610595565b5060208310610133831016604e8410600b8410161715611a19575081810a610595565b611a23838361195b565b8060001904821115611a3757611a3761185d565b029392505050565b60006115f9838361199e565b60008651611a5d818460208b01611600565b6bffffffffffffffffffffffff19606097881b8116919093019081529490951b166014840152602883019190915260488201526068019291505056fe6d696e7428616464726573732c75696e743235362c75696e743235362c62797465732977697468647261772875696e743235362c616464726573732c75696e743235362c627974657329a2646970667358221220c9cfa7348c7830683fa0aae2177bd86b299b87471d3745fd3cd3f78dee21079864736f6c63430008110033",
  "devdoc": {
    "kind": "dev",
    "methods": {
      "allowance(address,address)": {
        "details": "See {IERC20-allowance}."
      },
      "approve(address,uint256)": {
        "details": "See {IERC20-approve}. NOTE: If `amount` is the maximum `uint256`, the allowance is not updated on `transferFrom`. This is semantically equivalent to an infinite approval. Requirements: - `spender` cannot be the zero address."
      },
      "balanceOf(address)": {
        "details": "See {IERC20-balanceOf}."
      },
      "burn(uint256)": {
        "details": "Destroys `amount` tokens from the caller. See {ERC20-_burn}."
      },
      "burnFrom(address,uint256)": {
        "details": "Destroys `amount` tokens from `account`, deducting from the caller's allowance. See {ERC20-_burn} and {ERC20-allowance}. Requirements: - the caller must have allowance for ``accounts``'s tokens of at least `amount`."
      },
      "decimals()": {
        "details": "Returns the number of decimals used to get its user representation. For example, if `decimals` equals `2`, a balance of `505` tokens should be displayed to a user as `5.05` (`505 / 10 ** 2`). Tokens usually opt for a value of 18, imitating the relationship between Ether and Wei. This is the value {ERC20} uses, unless this function is overridden; NOTE: This information is only used for _display_ purposes: it in no way affects any of the arithmetic of the contract, including {IERC20-balanceOf} and {IERC20-transfer}."
      },
      "decreaseAllowance(address,uint256)": {
        "details": "Atomically decreases the allowance granted to `spender` by the caller. This is an alternative to {approve} that can be used as a mitigation for problems described in {IERC20-approve}. Emits an {Approval} event indicating the updated allowance. Requirements: - `spender` cannot be the zero address. - `spender` must have allowance for the caller of at least `subtractedValue`."
      },
      "increaseAllowance(address,uint256)": {
        "details": "Atomically increases the allowance granted to `spender` by the caller. This is an alternative to {approve} that can be used as a mitigation for problems described in {IERC20-approve}. Emits an {Approval} event indicating the updated allowance. Requirements: - `spender` cannot be the zero address."
      },
      "name()": {
        "details": "Returns the name of the token."
      },
      "owner()": {
        "details": "Returns the address of the current owner."
      },
      "paused()": {
        "details": "Returns true if the contract is paused, and false otherwise."
      },
      "renounceOwnership()": {
        "details": "Leaves the contract without owner. It will not be possible to call `onlyOwner` functions anymore. Can only be called by the current owner. NOTE: Renouncing ownership will leave the contract without an owner, thereby removing any functionality that is only available to the owner."
      },
      "symbol()": {
        "details": "Returns the symbol of the token, usually a shorter version of the name."
      },
      "totalSupply()": {
        "details": "See {IERC20-totalSupply}."
      },
      "transfer(address,uint256)": {
        "details": "See {IERC20-transfer}. Requirements: - `to` cannot be the zero address. - the caller must have a balance of at least `amount`."
      },
      "transferFrom(address,address,uint256)": {
        "details": "See {IERC20-transferFrom}. Emits an {Approval} event indicating the updated allowance. This is not required by the EIP. See the note at the beginning of {ERC20}. NOTE: Does not update the allowance if the current allowance is the maximum `uint256`. Requirements: - `from` and `to` cannot be the zero address. - `from` must have a balance of at least `amount`. - the caller must have allowance for ``from``'s tokens of at least `amount`."
      },
      "transferOwnership(address)": {
        "details": "Transfers ownership of the contract to a new account (`newOwner`). Can only be called by the current owner."
      }
    },
    "version": 1
  },
  "userdoc": {
    "kind": "user",
    "methods": {},
    "version": 1
  },
  "storageLayout": {
    "storage": [
      {
        "astId": 236,
        "contract": "contracts/TestShield.sol:TestShield",
        "label": "_balances",
        "offset": 0,
        "slot": "0",
        "type": "t_mapping(t_address,t_uint256)"
      },
      {
        "astId": 242,
        "contract": "contracts/TestShield.sol:TestShield",
        "label": "_allowances",
        "offset": 0,
        "slot": "1",
        "type": "t_mapping(t_address,t_mapping(t_address,t_uint256))"
      },
      {
        "astId": 244,
        "contract": "contracts/TestShield.sol:TestShield",
        "label": "_totalSupply",
        "offset": 0,
        "slot": "2",
        "type": "t_uint256"
      },
      {
        "astId": 246,
        "contract": "contracts/TestShield.sol:TestShield",
        "label": "_name",
        "offset": 0,
        "slot": "3",
        "type": "t_string_storage"
      },
      {
        "astId": 248,
        "contract": "contracts/TestShield.sol:TestShield",
        "label": "_symbol",
        "offset": 0,
        "slot": "4",
        "type": "t_string_storage"
      },
      {
        "astId": 130,
        "contract": "contracts/TestShield.sol:TestShield",
        "label": "_paused",
        "offset": 0,
        "slot": "5",
        "type": "t_bool"
      },
      {
        "astId": 7,
        "contract": "contracts/TestShield.sol:TestShield",
        "label": "_owner",
        "offset": 1,
        "slot": "5",
        "type": "t_address"
      },
      {
        "astId": 1010,
        "contract": "contracts/TestShield.sol:TestShield",
        "label": "authSigner",
        "offset": 0,
        "slot": "6",
        "type": "t_address"
      },
      {
        "astId": 1014,
        "contract": "contracts/TestShield.sol:TestShield",
        "label": "periodicMinted",
        "offset": 0,
        "slot": "7",
        "type": "t_mapping(t_uint256,t_uint256)"
      },
      {
        "astId": 1020,
        "contract": "contracts/TestShield.sol:TestShield",
        "label": "sigNonces",
        "offset": 0,
        "slot": "8",
        "type": "t_mapping(t_address,t_mapping(t_uint256,t_bool))"
      }
    ],
    "types": {
      "t_address": {
        "encoding": "inplace",
        "label": "address",
        "numberOfBytes": "20"
      },
      "t_bool": {
        "encoding": "inplace",
        "label": "bool",
        "numberOfBytes": "1"
      },
      "t_mapping(t_address,t_mapping(t_address,t_uint256))": {
        "encoding": "mapping",
        "key": "t_address",
        "label": "mapping(address => mapping(address => uint256))",
        "numberOfBytes": "32",
        "value": "t_mapping(t_address,t_uint256)"
      },
      "t_mapping(t_address,t_mapping(t_uint256,t_bool))": {
        "encoding": "mapping",
        "key": "t_address",
        "label": "mapping(address => mapping(uint256 => bool))",
        "numberOfBytes": "32",
        "value": "t_mapping(t_uint256,t_bool)"
      },
      "t_mapping(t_address,t_uint256)": {
        "encoding": "mapping",
        "key": "t_address",
        "label": "mapping(address => uint256)",
        "numberOfBytes": "32",
        "value": "t_uint256"
      },
      "t_mapping(t_uint256,t_bool)": {
        "encoding": "mapping",
        "key": "t_uint256",
        "label": "mapping(uint256 => bool)",
        "numberOfBytes": "32",
        "value": "t_bool"
      },
      "t_mapping(t_uint256,t_uint256)": {
        "encoding": "mapping",
        "key": "t_uint256",
        "label": "mapping(uint256 => uint256)",
        "numberOfBytes": "32",
        "value": "t_uint256"
      },
      "t_string_storage": {
        "encoding": "bytes",
        "label": "string",
        "numberOfBytes": "32"
      },
      "t_uint256": {
        "encoding": "inplace",
        "label": "uint256",
        "numberOfBytes": "32"
      }
    }
  }
}